:100000000C9463000C948B000C948B000C948B006C
:100010000C948B000C948B000C948B000C948B0034
:100020000C948B000C948B000C948B000C948B0024
:100030000C948B000C948B000C948B000C948B0014
:100040000C949E030C948B000C940E040C94E80307
:100050000C948B000C948B000C948B000C948B00F4
:100060000C948B000C948B000000000024002700EF
:100070002A0000000000250028002B0000000000DE
:1000800023002600290004040404040404040202DA
:100090000202020203030303030301020408102007
:1000A0004080010204081020010204081020000012
:1000B0000008000201000003040700000000000027
:1000C00000004004B70711241FBECFEFD8E0DEBF09
:1000D000CDBF22E0ACE4B1E001C01D92AB36B20767
:1000E000E1F711E0A0E0B1E0E0ECF4E102C005903E
:1000F0000D92AC34B107D9F710E0C2E6D0E004C0ED
:100100002197FE010E945B08C136D107C9F70E9402
:1001100001050C94530A0C94000096E0899FD001CD
:100120001124A850BE4F90967C936E935F9791E0F8
:1001300091969C939197E0916502F091660290915F
:100140006402992339F0309751F0811108C08091F1
:1001500014020994309719F05C968C91FACF0895A7
:10016000833081F028F4813099F08230A9F008952D
:100170008730A9F08830C9F08430B1F480918000D4
:100180008F7D03C0809180008F77809380000895D9
:1001900084B58F7784BD089584B58F7DFBCF809122
:1001A000B0008F778093B00008958091B0008F7D6C
:1001B000F9CFCF93DF93282F30E0F901E255FF4FBD
:1001C0008491F901E656FF4FD491F901EA57FF4FA8
:1001D000C491CC23A1F081110E94B000EC2FF0E07B
:1001E000EE0FFF1FE458FF4FA591B491EC91ED2362
:1001F00081E090E009F480E0DF91CF91089580E004
:1002000090E0FACF1F93CF93DF93282F30E0F901CE
:10021000E255FF4F8491F901E656FF4FD491F90161
:10022000EA57FF4FC491CC23A9F0162F81110E94E9
:10023000B000EC2FF0E0EE0FFF1FEE58FF4FA5913E
:10024000B4918FB7F894EC91111108C0D095DE23CA
:10025000DC938FBFDF91CF911F910895DE2BF8CFF4
:10026000CF93DF9390E0FC01E656FF4F24918A572D
:100270009F4FFC0184918823C9F090E0880F991F5B
:10028000FC01E859FF4FA591B491FC01EE58FF4FD6
:10029000C591D49161110DC09FB7F8948C912095B0
:1002A00082238C938881282328839FBFDF91CF915D
:1002B0000895623051F49FB7F8943C91822F809555
:1002C00083238C93E8812E2BEFCF8FB7F894EC919A
:1002D0002E2B2C938FBFEACF3FB7F894809151011A
:1002E00090915201A0915301B091540126B5A89B61
:1002F00005C02F3F19F00196A11DB11D3FBFBA2FB8
:10030000A92F982F8827BC01CD01620F711D811D77
:10031000911D42E0660F771F881F991F4A95D1F7FC
:1003200008958F929F92AF92BF92CF92DF92EF92F9
:10033000FF924B015C010E946C016B017C010E94E9
:100340006C016C197D098E099F09683E7340810517
:100350009105A8F321E0821A9108A108B10888EE5E
:10036000C80E83E0D81EE11CF11C81149104A10485
:10037000B10429F7FF90EF90DF90CF90BF90AF903E
:100380009F908F9008952FB7F89460914D017091D0
:100390004E0180914F01909150012FBF08950F930E
:1003A0001F93CF93DF93C82FD62F86E0C89FF0010D
:1003B0001124E850FE4F11A2878D90A18130910544
:1003C000F1F058F082309105F1F1039709F440C043
:1003D000DF91CF911F910F9108956623C9F361E0DA
:1003E00070E08C2F0E948D000E94C3016093500228
:1003F000709351028093520290935302E9CF0E946E
:10040000C30100915002109151022091520230918B
:100410005302AB01BC01401B510B620B730B80916B
:10042000620290916302B0E0A0E084179507A607EE
:10043000B70748F462E070E08C2FDF91CF911F91F5
:100440000F910C948D0063E070E0D111C1CFF4CF17
:1004500070E060E0F1CF0895862F642F0C94300196
:10046000862F642F0C940201862F0C94D900AF9232
:10047000BF92CF92DF92EF92FF920F931F93CF9391
:10048000DF936C017B018B01040F151FEB015E01F3
:10049000AE18BF08C017D10759F06991D601ED9188
:1004A000FC910190F081E02DC6010995892B79F727
:1004B000C501DF91CF911F910F91FF90EF90DF90D9
:1004C000CF90BF90AF900895FC01538D448D252FA0
:1004D00030E0842F90E0821B930B541710F0CF96DE
:1004E000089501970895FC01918D828D981761F010
:1004F000A28DAE0FBF2FB11D5D968C91928D9F5F27
:100500009F73928F90E008958FEF9FEF08950F9360
:100510001F930E94C30160935D0170935E018093FD
:100520005F019093600185E591E00E94730297FF5F
:100530001DC00E94C30100915D0110915E012091D8
:100540005F0130916001601B710B820B930B009176
:10055000590110915A0120915B0130915C016017A3
:10056000710782079307F8F28FEF9FEF1F910F91AA
:100570000895FC01918D828D981731F0828DE80FDE
:10058000F11D858D90E008958FEF9FEF0895FC0198
:10059000918D228D892F90E0805C9F4F821B910965
:1005A0008F739927089585E591E00E94C70221E0A5
:1005B000892B09F420E0822F089580E090E0892BB8
:1005C00029F00E94D30281110C9400000895FC01CF
:1005D000A48DA80FB92FB11DA35ABF4F2C91848DA4
:1005E00090E001968F739927848FA689B7892C9301
:1005F000A089B1898C91837080648C93938D848D54
:10060000981306C00288F389E02D80818F7D808356
:100610000895EF92FF920F931F93CF93DF93EC0116
:1006200081E0888F9B8D8C8D98131AC0E889F98999
:10063000808185FF15C09FB7F894EE89FF8960839C
:10064000E889F98980818370806480839FBF81E01D
:1006500090E0DF91CF911F910F91FF90EF9008955F
:10066000F62E0B8D10E00F5F1F4F0F731127E02E3A
:100670008C8D8E110CC00FB607FCFACFE889F98972
:10068000808185FFF5CFCE010E94E702F1CFEB8D8F
:10069000EC0FFD2FF11DE35AFF4FF0829FB7F89446
:1006A0000B8FEA89FB8980818062CFCFCF93DF9364
:1006B000EC01888D8823B9F0AA89BB89E889F9897A
:1006C0008C9185FD03C0808186FD0DC00FB607FCAF
:1006D000F7CF8C9185FFF2CF808185FFEDCFCE01E2
:1006E0000E94E702E9CFDF91CF9108950F931F9306
:1006F000CF93DF93EC0188819981009759F02A818B
:100700003B812617370730F081E0DF91CF911F91B1
:100710000F9108958B016F5F7F4F0E9486090097AC
:1007200059F0998388831B830A832C813D81232B75
:1007300059F7FC011082E8CF80E0E7CF1F920F92BB
:100740000FB60F9211242F933F938F939F93AF93E4
:10075000BF9380914D0190914E01A0914F01B091B6
:10076000500130914C0123E0230F2D3758F50196AD
:10077000A11DB11D20934C0180934D0190934E011A
:10078000A0934F01B093500180915101909152017B
:10079000A0915301B09154010196A11DB11D809308
:1007A000510190935201A0935301B0935401BF9112
:1007B000AF919F918F913F912F910F900FBE0F900E
:1007C0001F90189526E8230F0296A11DB11DD2CFC8
:1007D0001F920F920FB60F9211242F933F934F93B6
:1007E0005F936F937F938F939F93AF93BF93EF9399
:1007F000FF9385E591E00E94E702FF91EF91BF91A1
:10080000AF919F918F917F916F915F914F913F91A8
:100810002F910F900FBE0F901F9018951F920F925F
:100820000FB60F9211242F938F939F93EF93FF9303
:10083000E0916501F09166018081E0916B01F0919A
:100840006C0182FD1BC0908180916E018F5F8F7360
:1008500020916F01821741F0E0916E01F0E0EB5AB8
:10086000FE4F958F80936E01FF91EF919F918F9135
:100870002F910F900FBE0F901F9018958081F4CF8D
:10088000109258011092570188EE93E0A0E0B0E07A
:100890008093590190935A01A0935B01B0935C013E
:1008A00081E391E0909356018093550185EC90E0AF
:1008B000909362018093610184EC90E090936401D5
:1008C0008093630180EC90E09093660180936501D2
:1008D00081EC90E0909368018093670182EC90E056
:1008E00090936A018093690186EC90E090936C018B
:1008F00080936B0110926E0110926F011092700143
:10090000109271011092FA011092FE011092FD01F5
:100910001092FF0183E491E09093F9018093F80134
:10092000E4E1F2E01082148213821582369682E0AE
:10093000E035F807B9F783E091E090935B0280938C
:100940005A0280E091E090935D0280935C0284E023
:1009500080935E0283E080935F0287E091E0909352
:100960005902809358028AE090E09093610280934C
:10097000600284EF91E09093630280936202109290
:100980006602109265021092540210925502109263
:10099000560210925702109264021092F3011092C4
:1009A000F2011092F5011092F4011092F7011092E9
:1009B000F60170E060E082EF91E00E947603209102
:1009C000F2013091F301811113C02115310519F0A5
:1009D000C9010E94FD081092F3011092F2011092D9
:1009E000F7011092F6011092F5011092F4010895AA
:1009F0001092F7011092F6016BE471E0C9010C94BA
:100A00004C0ACF93DF93CDB7DEB728970FB6F89493
:100A1000DEBF0FBECDBF789484B5826084BD84B53F
:100A2000816084BD85B5826085BD85B5816085BDE9
:100A300080916E00816080936E00109281008091A1
:100A40008100826080938100809181008160809329
:100A50008100809180008160809380008091B1004E
:100A600084608093B1008091B00081608093B00079
:100A700080917A00846080937A0080917A0082600D
:100A800080937A0080917A00816080937A008091CF
:100A90007A00806880937A001092C10009E111E029
:100AA000F801F0800E5F1F4F61E08F2D0E94300132
:100AB00061E08F2D0E940201F1E00D321F0781F7E6
:100AC000E0916501F091660182E08083E09161012F
:100AD000F09162011082E0916301F09164018FEC6A
:100AE000808310926D01E0916901F0916A0186E0C6
:100AF0008083E0916701F09168018081806180834B
:100B0000E0916701F0916801808188608083E091C5
:100B10006701F0916801808180688083E0916701BE
:100B2000F091680180818F7D8083412C512C3201AE
:100B3000439481E0809364020E94C301C0905402F8
:100B4000D0905502E0905602F0905702AB01BC01E4
:100B50004C195D096E097F098091600290916102D4
:100B6000B0E0A0E084179507A607B70708F056C1C4
:100B7000F12C80915E02F81660F4E0915A02F09137
:100B80005B02EF0DF11D62E080810E943001F39461
:100B9000F0CF312C80915F02381608F062C0E32C50
:100BA000F12CE0915C02F0915D02EE0DFF1D61E021
:100BB00080810E943001E0915C02F0915D02EE0DB7
:100BC000FF1D60E080810E940201D301C201032C5D
:100BD00004C0880F991FAA1FBB1F0A94D2F74C01AB
:100BE0005C01A094B094212C80915E02281610F52F
:100BF000C22CD12CE0915A02F0915B02EC0DFD1D4C
:100C000080810E94D90096012C5F3F4FF901EE0FC1
:100C1000FF1FE850FE4F892B41F480819181882984
:100C20009929918380832394DFCF808191818A21C8
:100C30009B21F7CFE0915C02F0915D02EE0DFF1D6C
:100C400061E080810E94020180915C0290915D02CE
:100C5000E80EF91E60E0F70180810E9430013394B4
:100C600099CF38EFE32E31E0F32E6701F601878D3F
:100C700090A1892B31F4148E2FEF3FEF368F258F03
:100C800011A236E0C30ED11C84E392E08C159D05C1
:100C900069F7B12C80915E02B81608F053C0A12C00
:100CA0008B2C912C880C991CF401E050FE4F4F01C5
:100CB00020915F02A21608F043C0F40160817181A7
:100CC0000A2C02C0769567950A94E2F7B29E9001CD
:100CD00011242A0D311DE8EFF1E080E0458D568D9D
:100CE0002417350709F441C18F5F36968A30B1F772
:100CF00060FF24C0E8EFF1E090E080E0448D411116
:100D000018C0E0915802F0915902E20FF31F4081A0
:100D100056E0589FF001599FF00D1124E850FE4F06
:100D2000448F368F258F10A2178E61E00E94CF016D
:100D300005C0019636968A30910501F7A394B8CF85
:100D4000B394A8CFB12CF70181A18111B82EF6E0A0
:100D5000EF0EF11CEC14FD04B1F70E94C301609387
:100D60005402709355028093560290935702BB2011
:100D700009F454C080911902882309F44FC080916E
:100D8000170290911802019709F048C0609114026F
:100D9000611147C085E591E00E94C7021816190647
:100DA0000CF0D6C01A8219821C821B821E821D8200
:100DB00070E060E0CE0101960E94760329813A81BD
:100DC00081113CC02115310519F0C9010E94FD08AF
:100DD0001A8219821E821D821C821B820E94870237
:100DE00097FD34C08F831886ED80FE802FEFE21AC6
:100DF000F20AB701CE0101960E947603882371F3AF
:100E000029813A818D819E81BE01695F7F4F820F6A
:100E1000931F0E944C0AFE82ED82E0CF1092640282
:100E2000B9CF85E591E00E94090342E050E069E412
:100E300071E085E591E00E943702ACCF1E821D82F1
:100E40006BE471E0C9010E944C0AC8CF8091F201A5
:100E50009091F301009709F460C069817A8161156E
:100E6000710509F458C04091F4015091F5012D81AC
:100E70003E814217530708F44EC00E944C0A8D81F0
:100E80009E819093F7018093F6011E821D828981D5
:100E90009A81009711F00E94FD088091F2019091D3
:100EA000F301009709F450C00E94C007CB016AE02B
:100EB00070E00E9433085B0199E1E92E91E0F92E80
:100EC000F701D080F2E0EF0EF11C61E08D2D0E9461
:100ED000300161E08D2D0E9402010E151F0581F782
:100EE00089E1C82E81E0D82EF12CE12CEA14FB0414
:100EF0007CF5F6018081F2E0CF0ED11C60E00E940B
:100F000002016EE170E080E090E00E9491012FEF1D
:100F1000E21AF20AEBCF0E94FD0889819A81909330
:100F2000F3018093F2018B819C819093F501809372
:100F3000F4018D819E819093F7018093F6011A82CE
:100F400019821C821B82A1CF60E070E0CB01AECF82
:100F500080E090E0892B09F4ECCD0E94D302882335
:100F600009F4E7CD0E940000E4CD6170DFCE8091EE
:100F7000F2019091F301009711F00C94FD0808958F
:100F80001F93FC0199278827BC01E8941191103226
:100F9000E9F3193010F01E30C8F31B3251F01D3246
:100FA00049F4689406C00E94E707610F711D811D16
:100FB000911D119110531A30B0F33EF49095809525
:100FC000709561957F4F8F4F9F4F1F910895592FB7
:100FD000482F372F262F660F771F881F991F660F00
:100FE000771F881F991F620F731F841F951F660F3D
:100FF000771F881F991F08952F923F924F925F92FB
:101000006F927F928F929F92AF92BF92CF92DF9218
:10101000EF92FF920F931F93CF93DF93CDB7DEB77D
:10102000CA1BDB0B0FB6F894DEBF0FBECDBF099411
:101030002A88398848885F846E847D848C849B8468
:10104000AA84B984C884DF80EE80FD800C811B8176
:10105000AA81B981CE0FD11D0FB6F894DEBF0FBEA5
:10106000CDBFED01089597FB072E16F4009407D02D
:1010700077FD09D00E94470807FC05D03EF4909503
:1010800081959F4F0895709561957F4F0895AA1B94
:10109000BB1B51E107C0AA1FBB1FA617B70710F063
:1010A000A61BB70B881F991F5A95A9F78095909595
:1010B000BC01CD010895EE0FFF1F0590F491E02DC6
:1010C00009940F931F93CF93DF938230910510F40F
:1010D00082E090E0E0916902F0916A0230E020E065
:1010E000B0E0A0E0309799F42115310509F44AC029
:1010F000281B390B24303105D8F58A819B81611575
:10110000710589F1FB0193838283FE0111C0408147
:1011100051810281138148175907E0F04817590798
:1011200099F4109761F012960C93129713961C93F2
:101130003296CF01DF91CF911F910F9108950093C7
:10114000690210936A02F4CF2115310551F042175C
:10115000530738F0A901DB019A01BD01DF01F80155
:10116000C1CFEF01F9CF90936A0280936902CDCF8E
:10117000FE01E20FF31F81939193225031093983CD
:101180002883D7CF2091670230916802232B41F446
:101190002091150130911601309368022093670267
:1011A00020911301309114012115310541F42DB71F
:1011B0003EB74091170150911801241B350BE09167
:1011C0006702F0916802E217F307A0F42E1B3F0BB1
:1011D0002817390778F0AC014E5F5F4F24173507A9
:1011E00048F04E0F5F1F509368024093670281934F
:1011F00091939FCFF0E0E0E09CCFCF93DF930097F7
:10120000E9F0FC01329713821282A0916902B09139
:101210006A02ED0130E020E01097A1F420813181D5
:10122000820F931F209167023091680228173907B7
:1012300009F061C0F0936802E0936702DF91CF91FB
:101240000895EA01CE17DF07E8F54A815B819E0128
:1012500041155105B1F7E901FB83EA8349915991A1
:10126000C40FD51FEC17FD0761F4808191810296B0
:10127000840F951FE90199838883828193819B83E1
:101280008A83F0E0E0E012968D919C91139700978D
:10129000B9F52D913C911197CD010296820F931FC4
:1012A00020916702309168022817390739F6309784
:1012B00051F510926A0210926902B0936802A093ED
:1012C0006702BCCFD383C28340815181840F951FB5
:1012D000C817D90761F44E5F5F4F88819981480F25
:1012E000591F518340838A819B8193838283211577
:1012F000310509F0B0CFF0936A02E09369029ECF06
:10130000FD01DC01C0CF13821282D7CFB0E0A0E094
:10131000ECE8F9E00C94FE078C01009751F4CB0146
:101320000E9461088C01C801CDB7DEB7E0E10C94E2
:101330001A08FC01E60FF71F9C0122503109E21741
:10134000F30708F49DC0D901CD91DC911197C61720
:10135000D70798F0C530D10530F3CE010497861732
:10136000970708F3C61BD70B2297C193D1936D93B0
:101370007C93CF010E94FD08D6CF5B01AC1ABD0A59
:101380004C018C0E9D1EA0916902B0916A02512CF5
:10139000412CF12CE12C109731F58091670290914E
:1013A00068028815990509F05CC04616570608F0D2
:1013B00058C08091130190911401009741F48DB7AA
:1013C0009EB74091170150911801841B950BE817A7
:1013D000F90708F055C0F0936802E0936702F9013D
:1013E00071836083A0CF8D919C91119712966C9020
:1013F000129713967C901397A815B90559F56C01AF
:1014000042E0C40ED11CCA14DB0420F1AC014A191D
:101410005B09DA011296159780F06282738251831C
:101420004083D9016D937C93E114F10471F0D701ED
:101430001396FC93EE93129776CF22968C0F9D1FF6
:10144000F90191838083F301EFCFF0936A02E09377
:10145000690269CF4816590608F42C017D01D301B1
:101460009ACFCB010E9461087C01009749F0AE0140
:10147000B8010E94430AC8010E94FD08870153CFAA
:1014800010E000E050CFFB01DC0102C001900D92A2
:1014900041505040D8F70895FB01DC0101900D92B6
:1014A0000020E1F7089510E0C2E6D0E004C0FE019C
:1014B0000E945B082196C336D107C9F7F894FFCF85
:1014C000080706020304053132333435363738391C
:1014D0002A302300006B02800009000A000B000C78
:1014E000000D000E000F001000110012000000009F
:1014F000000903370264025603C7027302B90200EF
:0C1500000000002C02300234020D0A0032
:00000001FF
